:100000000C9434000C943E000C943E000C943E0082
:100010000C943E000C943E000C943E000C943E0068
:100020000C943E000C943E000C943E000C943E0058
:100030000C943E000C943E000C943E000C943E0048
:100040000C943E000C943E000C943E000C943E0038
:100050000C943E000C943E000C943E000C943E0028
:100060000C943E000C943E0011241FBECFEFD8E04C
:10007000DEBFCDBF0E941D010C942C010C9400002A
:1000800050985198589A599A209A08955098519892
:10009000589A599A209A489902C0499B05C02898B5
:1000A00020E030E0C9010895289A21E030E0C9013C
:1000B000089580E480937C0087E880937A00089517
:1000C00090917C00987F90937C0090917C00877049
:1000D000892B80937C0080917A00806480937A00E1
:1000E00080917A0084FFFCCF80917A0080618093B8
:1000F0007A002091780030917900C901089580E458
:1001000080937C0087E880937A0080917C00887FD0
:1001100080937C0080917C0080937C0080917A00A9
:10012000806480937A0080917A0084FFFCCF809174
:100130007A00806180937A00209178003091790074
:10014000C9010895E0E8F0E0808183688083E1E8F8
:10015000F0E080818B608083219A08959C018091DA
:100160008000836880938000809181008B60809301
:100170008100219A293C3105F8F0C901895C904041
:100180008C52914078F0255F3140283C3105F0F0E9
:100190008CEC93E0909389008093880021E230E01A
:1001A000C90108958AE991E09093890080938800BD
:1001B00029E130E0C90108958DEC90E09093890029
:1001C0008093880024E130E0C90108958DEC92E02D
:1001D00090938900809388002DE130E0C901089553
:1001E0009093C5008093C40086E48093C20088ED9C
:1001F0008093C10008958091C00087FFFCCF80915B
:10020000C6000895982F8091C00085FFFCCF909381
:10021000C6000895982F1092C50087E68093C40009
:1002200086E48093C20088ED8093C1008091C00075
:1002300085FFFCCF9093C60008950E944600019769
:10024000E1F70E947F000E94AE000E940A010E9416
:0C0250004600019791F7F5CFF894FFCF1E
:00000001FF
