:100000000C9434000C948B000C949F000C944600CC
:100010000C9446000C9446000C9446000C94460048
:100020000C9446000C9446000C9446000C94460038
:100030000C9446000C9446000C9446000C94460028
:100040000C9446000C9446000C9446000C94460018
:100050000C9446000C9446000C9446000C94460008
:100060000C9446000C94460011241FBECFEFD8E03C
:10007000DEBFCDBF11E0A0E0B1E001C01D92A43011
:10008000B107E1F70E9448000C94B3000C94000003
:10009000209A52985A9A53985B9A809169008A6084
:1000A000809369008DB383608DBB789440E951E003
:1000B0008091000190910101019791F0289820E032
:1000C00030E0CA010197F1F72F5F3F4F87E22031FF
:1000D0003807B9F78091000190910101019771F7FC
:1000E0008091020190910301019741F7289A20E045
:1000F00030E0CA010197F1F72F5F3F4F83EC2035C5
:100100003807B9F710920101109200011092030113
:1001100010920201CDCF1F920F920FB60F921124B1
:100120008F939F9381E090E0909301018093000171
:100130009F918F910F900FBE0F901F9018951F9257
:100140000F920FB60F9211248F939F9381E090E04E
:1001500090930301809302019F918F910F900FBEA6
:0A0160000F901F901895F894FFCF40
:00000001FF
